:100000000EC01BC01AC019C018C017C016C015C03A
:1000100014C013C012C059C010C00FC00EC01124AC
:100020001FBECFEDCDBF20E0A0E6B0E001C01D9225
:10003000AF39B207E1F7EDD04AC2E2CFFC019C0133
:10004000205F3F4F11921192E217F307D9F7FC019D
:10005000128A118A108A0895F894209163003091D1
:10006000640078948091610090916200281B390BA4
:10007000243F314038F0A8958C509E4F90936200F9
:100080008093610008950F931F93CF93DF93EC014A
:10009000F89400916300109164007894DDDFF89487
:1000A00020916300309164007894201B310B2C1751
:1000B0003D07A0F3DF91CF911F910F910895C39A4F
:1000C000C29A0895C398C29808951F920F920FB6CE
:1000D0000F9211242F933F934F935F936F937F93CE
:1000E0008F939F93EF93FF9384B195B19370209179
:1000F00063003091640042B74831E8F3237033273E
:100100002230310559F12330310509F449C021303D
:10011000310511F0C09865C020919E002223E1F0C6
:10012000409188005091890020918A00E22FF0E0F0
:10013000480F591FEE0FFF1FE858FF4F6081718174
:10014000461B570B5093890040938800918380830E
:100150002F5F277020938A00C19A43C020919E0090
:100160002223E1F0409175005091760020917700B4
:10017000E22FF0E0480F591FEE0FFF1FEB59FF4F22
:1001800060817181461B570B509376004093750038
:10019000918380832F5F277020937700C19821C0BF
:1001A00020919E002223E1F040919B0050919C0001
:1001B00020919D00E22FF0E0480F591FEE0FFF1F26
:1001C000E557FF4F60817181461B570B50939C0090
:1001D00040939B00918380832F5F277020939D0025
:1001E000C09A80916300909164000196909364009E
:1001F00080936300FF91EF919F918F917F916F9119
:100200005F914F913F912F910F900FBE0F901F90D4
:100210001895CF93DF93CDB7DD27C850CDBFF894A5
:1002200084E084BB18BA8FE087BB78949DE088E1B6
:100230000FB6F894A89581BD0FBE91BD10929E0097
:100240008BE890E0FBDE88E790E0F8DE85E690E062
:10025000F5DEF8941CBC82E08ABD13BE12BE8CE7AA
:1002600089BD18BC88E088BF89BF83B7826083BF1F
:1002700083E087B986EA86B985E083B91092640085
:1002800010926300109262001092610078941ADF5D
:10029000BB9884E090E0F7DE80E09DE7F4DE10920A
:1002A0009E00809175009091760040919B00509146
:1002B0009C002091880030918900840F951F820F47
:1002C000931F21E08C31924008F420E020936000DD
:1002D00082E087B9BB9A80916000811102C014E06E
:1002E00001C012E0ECDE80ED97E0CDDEEBDE80EDCC
:1002F00097E0C9DE1150B1F78BE890E09FDE88E708
:1003000090E09CDE85E690E099DE81E080939E009F
:1003100080E290E0B8DEF89460919B0070919C00C0
:1003200040918800509189008091750090917600ED
:1003300078946033ABE17A0720F44033BBE15B078C
:1003400010F0BDDE4AC08617970718F4681B790BBA
:1003500002C060E070E0209160008417950778F497
:100360007A01E81AF90AE0E5EE16F10450F0E61613
:10037000F70638F42111E5CFC39AC2982EC0E12CBC
:10038000F12C211129C0F0E5EF16F10428F180E0ED
:1003900090E026E030E040E050E023D029833A832B
:1003A0004B835C836D837E838F839887B70180E066
:1003B00090E025E030E040E050E013D049015A01E0
:1003C00089819A81AB81BC8188159905AA05BB05F5
:1003D00018F0C398C29A01C075DE3EDE9CCF6894C7
:1003E0000013E894A0E0B0E0E7EFF1E01DC0EFEF0C
:1003F000E7F959016A015E23550FEE08FE2C8701CB
:100400009B01AC019E23990F660B762FCB0131D057
:10041000CDB7DD27EAE01FC02F923F924F925F9247
:100420006F927F928F929F92AF92BF92CF92DF9204
:10043000EF92FF920F931F93CF93DF93CDB7CA1B19
:10044000CDBFDD2709942A88398848885F846E8467
:100450007D848C849B84AA84B984C884DF80EE80E8
:10046000FD800C811B81AA81D981CE0FCDBFCA2FFF
:100470000895DF93CF939F92A0E49A2E0024D00199
:10048000E001F00116950795F794E794D794C79487
:10049000B794A79448F41068A20FB31FC41FD51FC8
:1004A000E61FF71F081E191E220F331F441F551F7A
:1004B000661F771F881F991F9A9421F79D01AE012F
:1004C000BF01C00111249F90CF91DF910895F8944E
:0204D000FFCF5C
:00000001FF
