:100000000EC013C012C011C010C00FC00EC00DC072
:100010001BC00BC00AC009C008C007C006C011241D
:100020001FBECFEDCDBF1AD04FC0EACF88EC86B946
:1000300085B7806285BF78948895F8943699FBCF10
:1000400085B78F7D85BF08951F920F920FB60F92CF
:1000500011240F900FBE0F901F901895F89484E014
:1000600084BB18BA8FE087BB7894F89488E088BF87
:1000700083E087B988E886B913B885B7877E88603A
:1000800085BF85B7806285BF82E087B9BB9A8CE067
:1000900088BB7894CCE0CADF84B195B18C2F8260A4
:1000A00088BBC4DFC3DF04B115B18C2F816088BB6E
:1000B000BDDFBCDF84B195B1C8BBC0E0801791073C
:0C00C00008F4CCE0C8BBE7CFF894FFCFF9
:00000001FF
