:100000000EC01BC01AC019C018C017C016C015C03A
:1000100014C013C012C048C010C00FC00EC01124BD
:100020001FBECFEDCDBF20E0A0E6B0E001C01D9225
:10003000AE39B207E1F7DDD062C1E2CFFC01118237
:100040001082138212821582148217821682118600
:100050001086138612861586148617861686128ACF
:10006000118A108A0895F89480916200909163003B
:1000700078942091600030916100821B930B843F43
:10008000914058F0A89580916000909161008C504B
:100090009E4F90936100809360000895C39AC29A26
:1000A0000895C398C29808951F920F920FB60F92A9
:1000B00011242F933F934F935F936F937F938F936D
:1000C0009F93EF93FF9384B195B193702091620059
:1000D0003091630042B74831E8F323703327223070
:1000E000310509F442C02330310509F460C02130E4
:1000F0003105C9F0C098809162009091630001962B
:100100009093630080936200FF91EF919F918F9194
:100110007F916F915F914F913F912F910F900FBE03
:100120000F901F90189520919D002223E1F040919F
:1001300087005091880020918900E22FF0E0480F5D
:10014000591FEE0FFF1FE958FF4F60817181461B59
:10015000570B5093880040938700918380832F5FD3
:10016000277020938900C19AC6CF20919D00222339
:10017000E1F0409174005091750020917600E22FDB
:10018000F0E0480F591FEE0FFF1FEC59FF4F608141
:100190007181461B570B50937500409374009183F7
:1001A00080832F5F277020937600C198A4CF209181
:1001B0009D002223E1F040919A0050919B002091F4
:1001C0009C00E22FF0E0480F591FEE0FFF1FE6578B
:1001D000FF4F60817181461B570B50939B004093EA
:1001E0009A00918380832F5F277020939C00C09A90
:1001F00082CFF89484E084BB18BA8FE087BB7894F0
:1002000088E19DE00FB6F894A89581BD0FBE91BD21
:1002100010929D008AE890E011DF87E790E00EDF02
:1002200084E690E00BDFF8941CBCC2E0CABD13BEAC
:1002300012BE8CE789BD18BC88E088BF89BF83B730
:10024000826083BF83E087B986EA86B985E083B997
:100250001092630010926200109261001092600090
:1002600078941FDFC7B9BB9A8AE890E0E7DE87E79A
:1002700090E0E4DE84E690E0E1DE81E080939D00A2
:10028000F894C0916200D09163007894ECDEF89409
:10029000809162009091630078948C1B9D0B8097F5
:1002A000A8F3F89480919A0090919B002091870088
:1002B000309188004091740050917500789480339B
:1002C0006BE1960720F420336BE1360718F0E6DE89
:1002D000CADEE7CF4817590778F4841B950B4217FD
:1002E000530740F4241B350B2035310518F028172F
:1002F000390768F3D6DEECCF90E080E0F0CFF894D9
:02030000FFCF2D
:00000001FF
