:100000000EC01BC01AC019C018C017C016C015C03A
:1000100014C013C012C012C010C00FC00EC01124F3
:100020001FBECFEDCDBF20E0A0E6B0E001C01D9225
:10003000AF39B207E1F7DAD1E9C1E2CF1F920F92EF
:100040000FB60F9211242F933F934F935F936F93AB
:100050007F938F939F93AF93BF93EF93FF9384B15D
:1000600095B1AC015370209164003091650082B766
:100070008831E8F3C901837099278130910551F0E7
:1000800038F08230910559F1039709F44DC070C0E2
:10009000C0986EC0809160008823F9F0A9E7B0E0B5
:1000A00050962D913C91519752968C915297E82FF2
:1000B000F0E0240F351FEE0FFF1FE758FF4F608160
:1000C0007181261B370B51963C932E935097518389
:1000D00040838F5F877052968C93C19A49C08091FC
:1000E00060008823F9F0A6E6B0E050962D913C918F
:1000F000519752968C915297E82FF0E0240F351FBC
:10010000EE0FFF1FEA59FF4F60817181261B370BED
:1001100051963C932E935097518340838F5F877005
:1001200052968C93C19824C0809160008823F9F086
:10013000ACE8B0E050962D913C91519752968C913D
:100140005297E82FF0E0240F351FEE0FFF1FE45702
:10015000FF4F60817181261B370B51963C932E9384
:100160005097518340838F5F877052968C93C09ACB
:100170008091640090916500019690936500809352
:100180006400FF91EF91BF91AF919F918F917F910B
:100190006F915F914F913F912F910F900FBE0F90F4
:1001A0001F901895F8948091640090916500789460
:1001B0002091620030916300821B930B843F914039
:1001C00038F0A8952C503E4F309363002093620086
:1001D00008950F931F93CF93DF938C01F894C091F0
:1001E0006400D09165007894DDDFF894209164007C
:1001F0003091650078942C1B3D0B20173107A0F33C
:10020000DF91CF911F910F910895FC019C01205F18
:100210003F4F11921192E217F307D9F7FC01128AAE
:10022000118A108A0895109260008CE890E0EDDF4A
:1002300089E790E0EADF86E690E0E7DFF8941CBC0F
:1002400082E08ABD13BE12BE8CE789BD18BC88E06F
:1002500088BF89BF83B7826083BF83E087B986EA9E
:1002600086B985E083B910926500109264001092FF
:100270006300109262007894C398C298BB9884E09F
:1002800090E0A7DF81E08093600080E09DE7A1DF40
:1002900010926000209176003091770040919C0090
:1002A00050919D008091890090918A00240F351F04
:1002B000820F931F21E08C31924008F420E02093BC
:1002C000610082E087B9BB9A80916100811187C08B
:1002D000C4E0C39AC29A80ED97E07BDFC398C298CE
:1002E00080ED97E076DFC150A1F78CE890E08DDFDC
:1002F00089E790E08ADF86E690E087DF81E08093FF
:10030000600080E290E065DF0F2EFCE8EF2EF0E069
:10031000FF2EF02D09E710E0C6E6D0E0C12CD12C6D
:10032000F894F70180899189F801208931894889F9
:10033000598978948033FBE19F0720F420336BE1E7
:10034000360718F0C39AC29A48C04817590718F4DC
:10035000841B950B02C08C2D9D2D42175307D8F599
:10036000241B350B20353105B0F128173907C8F5A6
:1003700080916100882319F0C39AC29A2EC0C39A53
:10038000C2982BC0A0E0B0E0AC01BD01440F551FE6
:10039000661F771F840F951FA61FB71F880F991F11
:1003A000AA1FBB1FA90160E070E04A015B01880C35
:1003B000991CAA1CBB1C880C991CAA1CBB1C480DB0
:1003C000591D6A1D7B1D84179507A607B70718F0EE
:1003D000C398C29A02C0C398C298E4DEA1CFC2E01B
:1003E00078CF409161004111F6CFCCCFF89484E0F2
:1003F00084BB18BA8FE087BB78949DE088E10FB684
:10040000F894A89581BD0FBE91BD0DDFF894FFCF84
:00000001FF
